S01F00002E2F67725F6275696C642F6B7572756D695F736B657463682E6D6F7410
S1050000C47ABC
S1130004D476E076EC76F876047710773677427710
S113001468778E77B477DA77E677F27718783E786C
S113002464788A78B078D678FC78087944795079F9
S11300345C798279A879CE79FFFFFFFFFFFFDA7933
S1130044007A267A4C7A587A647A707A7C7A887A36
S1130054947AFFFFFFFFFFFFFFFFA07AFFFFAC7A54
S1130064FFFFFFFFFFFFFFFFFFFFFFFFFFFFFFFF98
S10F0074FFFFFFFFFFFFFFFFFFFFB87A54
S10700C0EFFFE885DD
S10D00C4000000000000000000002E
S10700D8ECC47A00F6
S11300DC0000000000000000000000000000000010
S11300EC0000000000000000000000000000000000
S11300FC00000000000000000000000000000000F0
S113010C00000000000000000000000000000000DF
S11304D40000180017001600FF00F707FF00FFFFD5
S11304E4FFFF204E00000000E08B4A710000000072
S11304F400000000000000000000000000000000F4
S11305040000000000000000FFFF000000000000E5
S1130514020000000000D2AFD2AFD6AFD6AFDAAF3C
S1130524DAAFDEAFDEAFE2AFE2AFE6AFE6AFEAAF3B
S1130534EAAFEEAFEEAFF2AFF2AFF6AFF6AFFAAFAB
S1130544FAAFFEAFFEAF02B002B006B006B00AB016
S11305540AB00EB00EB012B012B016B016B01AB083
S11305641AB01EB01EB022B022B026B026B02AB0F3
S11305742AB02EB02EB032B032B036B036B03AB063
S11305843AB03EB03EB042B042B046B046B04AB0D3
S11305944AB04EB04EB052B052B056B056B05AB043
S11305A45AB05EB05EB062B062B066B066B06AB0B3
S11305B46AB06EB06EB072B072B076B076B07AB023
S11305C47AB07EB07EB082B082B086B086B08AB093
S11305D48AB08EB08EB092B092B096B096B09AB003
S11305E49AB09EB09EB0A2B0A2B0A6B0A6B0AAB073
S11305F4AAB0AEB0AEB0B2B0B2B0B6B0B6B0BAB0E3
S1130604BAB0BEB0BEB0C2B0C2B0C6B0C6B0CAB052
S1130614CAB0CEB0CEB0D2B0D2B0D6B0D6B0DAB0C2
S1130624DAB0DEB0DEB0E2B0E2B0E6B0E6B0EAB032
S1130634EAB0EEB0EEB0F2B0F2B0F6B0F6B0FAB0A2
S1130644FAB0FEB0FEB002B102B106B106B10AB10D
S11306540AB10EB10EB112B112B116B116B11AB17A
S11306641AB11EB11EB122B122B126B126B12AB1EA
S11306742AB12EB12EB132B132B136B136B13AB15A
S11306843AB13EB13EB142B142B146B146B14AB1CA
S11306944AB14EB14EB152B152B156B156B15AB13A
S11306A45AB15EB15EB162B162B166B166B16AB1AA
S11306B46AB16EB16EB172B172B176B176B17AB11A
S11306C47AB17EB17EB182B182B186B186B18AB18A
S11306D48AB18EB18EB192B192B196B196B19AB1FA
S11306E49AB19EB19EB1A2B1A2B1A6B1A6B1AAB16A
S11306F4AAB1AEB1AEB1B2B1B2B1B6B1B6B1BAB1DA
S1130704BAB1BEB1BEB1C2B1C2B1C6B1C6B1CAB149
S1130714CAB1CEB1CEB1D8B1000082B3BEB3FAB37C
S113072400000000000000000000000000000000C1
S113073400000000000000000000000000005A3324
S113074400000000000000000000000000000000A1
S11307540000000000000000000000000000000091
S11307640000000000000000000000000000000081
S11307740000000000000000000000000000000071
S1130784000001000000000000000E33CDAB341261
S11307946DE6ECDE05000B00000000000000000024
S11307A40000000000000000000000000000000041
S11307B40000000000000000000000000000000031
S11307C40000000000000000000000000000000021
S11307D40000000000000000000000000000000011
S11307E40000000000000000000000000000000001
S11307F400000000000000000000000000000000F1
S113080400000000000000000000000000000000E0
S113081400000000000000000000000000000000D0
S113082400000000000000000000000000000000C0
S113083400000000000000000000000000000000B0
S113084400000000000000000000000000000000A0
S11308540000000000000000000000000000000090
S11308640000000000000000000000000000000080
S11308740000000000000000000000000000000070
S11308840000000000000000000000000000000060
S11308940000000000000000000000000000000050
S11308A40000000000000000000000000000000040
S11308B40000000000000000000000000000000030
S11308C40000000000000000000000000000000020
S11308D40000000000000000000000000000000010
S11308E40000000000000000000000000000000000
S11308F400000000000000000000000000000000F0
S113090400000000000000000000000000000000DF
S113091400000000000000000000000000000000CF
S113092400000000000000000000000000000000BF
S113093400000000000000000000000000000000AF
S1130944000000000000000000000000000000009F
S1130954000000000000000000000000000000008F
S1130964000000000000000000000000000000007F
S109097400000000000079
S113300054656D70657261747572653A20003A3268
S1133010143072303653747265616D003134486116
S113302072647761726553657269616C00003A324B
S11330301C300E3000002E30303A17427B39DD3917
S1133040A039503B78324830395072696E746162ED
S11330506C650039495041646472657373003A3297
S11330605330443000005E303341355072696E7421
S1133070000078326A300201E00021FF3100410093
S1133080510001FF0402E00021FF31004100510022
S113309001FF0100E00023FF33004300530003FF5E
S11330A04006010021FF31004100510001FF0201EF
S11330B0E00023FF33004300530003FF2005020018
S11330C021FF31004100510001FF0100070021FFF1
S11330D031004100510001FF0100E00020FF3000F9
S11330E04000500000FF0201E00020FF30004000DB
S11330F0500000FF0803040021FF3100410051008B
S113310001FF1004030021FF31004100510001FFC1
S11331100402E00027FF37004700570007FF0201C1
S1133120E00027FF37004700570007FF0100E000D9
S113313027FF37004700570007FF0402E00022FF83
S113314032004200520002FF0803E00022FF320076
S11331504200520002FF1004E00022FF320042004D
S1133160520002FF2005E00022FF3200420052001C
S113317002FF4006E00022FF32004200520002FF3C
S11331808007E00022FF32004200520002FF800765
S1133190E0002EFF3E004E005E000EFF0100E00046
S11331A02CFF3C004C005C000CFF8007E00021FF7A
S11331B031004100510001FF0201E00025FF35000C
S11331C04500550005FF0100E00025FF35004500DE
S11331D0550005FF36536446696C65003A32D431B4
S11331E072300000DC31E66717423754776F576955
S11331F0726500003A32EA310E300000F431C170D9
S11332005470EC6F03702D7053704E31305F5F63F8
S11332107878616269763132305F5F73695F636CBD
S11332206173735F747970655F696E666F450000E2
S11332303A320A326E3200003032967CAE7CE2A31F
S1133240E5A31A84E882BC7ED87C277E4E31305FA9
S11332505F637878616269763131375F5F636C618F
S113326073735F747970655F696E666F45003A3297
S11332704C32443300006E326D838583E2A3E5A3B0
S11332801A84E882AF83A38457837374643A3A65DB
S11332907863657074696F6E007374643A3A62613E
S11332A0645F657863657074696F6E005374396523
S11332B07863657074696F6E00007832AC32537451
S11332C031336261645F657863657074696F6E0041
S11332D03A32BE32BA324E31305F5F63787861621F
S11332E069763131355F5F666F726365645F756EF1
S11332F077696E6445007832D6324E31305F5F6351
S11333007878616269763131395F5F666F726569B9
S1133310676E5F657863657074696F6E45007832B7
S1133320FA320000BA322CA14AA140A10000D032E6
S113333036A162A145A1537439747970655F696ED1
S1133340666F00007832363300004433D8A3EBA311
S1133350E2A3E5A303A4E8A3D8B14300FF0311014A
S1133360040001010501007F00007D000000000051
S113337000000000FF030D01020001010000000035
S113338000000000FF030D01040001010001000022
S11333900000000000000000FFFFB340FD4193590E
S11333A0AD59C759EA59045A1E5A385AA15AC25A31
S10B33B03C710000FFFF000066
S11333B82004AF3AB4442C0161E8ECD233008F9670
S11333C8AF9800E19802FC575400AF3AB44458024D
S11333D861E8ECF633008F96AF9800F19802FC5739
S11333E854008F94AF9800E19802FC575400AF3A08
S11333F8B444840361E8EC1A34008F94AF9800F164
S11334089802FC5754008F92AF9800E19802FC5739
S11334185400AF3AB444B00461E8EC3634008F92F7
S1133428AF9800F19802FC575400F6BF3AB4A23A98
S1133438B41004D761EFC1C3C561CF20063060B4AE
S1133448B800308025B802F6B804FC103F0030609C
S1133458B4B800300030B802FCBA4200F19800FC5D
S1133468284F003060B4B800ADF0B802300A00B894
S113347804FCDE4400C9EC96AFFAEC8B9800E198A2
S113348802FCBD5100C9EA94AFFAEA8B9800E198AE
S113349802FCBD5100C9E892AFFAE88B9800E198A4
S11334A802FCBD510051099800E19802FCBD51008D
S11334B851089800E19802FCBD510051079800E1B9
S11334C89802FCBD510051069800E19802FCBD51D8
S11334D80051059800E19802FCBD51005104980080
S11334E8E19802FCBD510051039800E19802FCBD2B
S11334F8510051029800E19802FCBD5100510A980C
S113350800E19802FCBD5100510B9800E19802FCBF
S1133518BD5100510C9800E19802FCBD510030BC2B
S113352802B800F6B802FCDF4900FAEC8B9800F107
S11335389802FC575400FAEA8B9800F19802FC5759
S11335485400FAE88B9800F19802FC57540051098A
S1133558980030F600B802FCAD540051089800F108
S11335689802FC57540051079800F19802FC5754EC
S11335780051069800F19802FC5754005105980030
S1133588F19802FC57540051049800F19802FC5732
S1133598540030692CB800FC15500030B833B8001A
S11335A8FCD94900100661EFC4C2C061CFD720041A
S11335B8A808B800300A00B802FC90BF00ADF04477
S11335C8040061F8EC4D370044040071FF61F3EC2A
S11335D82B360044010061F8EC1A370044010071ED
S11335E8FF61E3EC79380044020061F8EC2E3700FF
S11335F844030061E8EC79380051029800F198021C
S1133608FC57540051039800F19802FC5754005198
S1133618049800F19802FC57540051059800E1EC15
S11336289F380044070061F8ECC237004407007172
S1133638FF61F3EC9C360044050061F8EC82370026
S113364844060061E8EC79380051029800F19802C8
S1133658FC57540051039800F19802FC5754005148
S1133668049800F19802FC57540051059800F19809
S113367802FC57540051069800F19802FC57540074
S113368851079800F19802FC57540051089800E13A
S1133698ECC0380044080061F8EC1838004409000C
S11336A861E8EC79380051029800F19802FC57540B
S11336B80051039800F19802FC57540051049800F3
S11336C8F19802FC57540051059800F19802FC57F0
S11336D8540051069800F19802FC57540051079879
S11336E800F19802FC57540051089800F19802FC24
S11336F8575400510A9800F19802FC575400510B92
S11337089800F19802FC575400510C9800E1ECE140
S1133718380051029800F19802FC5754005103985C
S113372800E1EC89380051029800F19802FC5754E2
S11337380051039800F19802FC5754005104980072
S1133748E1EC94380051029800F19802FC575400B7
S113375851039800F19802FC57540051049800F161
S11337689802FC57540051059800F19802FC5754EC
S11337780051069800E1ECAA380051029800F1982B
S113378802FC57540051039800F19802FC57540066
S113379851049800F19802FC57540051059800F11F
S11337A89802FC57540051069800F19802FC5754AB
S11337B80051079800E1ECB5380051029800F198DF
S11337C802FC57540051039800F19802FC57540026
S11337D851049800F19802FC57540051059800F1DF
S11337E89802FC57540051069800F19802FC57546B
S11337F80051079800F19802FC57540051089800AA
S1133808F19802FC575400510A9800E1ECCB3800B7
S113381851029800F19802FC57540051039800F1A2
S11338289802FC57540051049800F19802FC57542C
S11338380051059800F19802FC575400510698006D
S1133848F19802FC57540051079800F19802FC576C
S1133858540051089800F19802FC575400510A98F2
S113386800F19802FC575400510B9800E1ECD6384B
S11338780051029800E19802FC5754005103980043
S1133888F19802FC57540051049800F19802FC572F
S1133898540051059800F19802FC575400510698B9
S11338A800F19802FC57540051079800F19802FC63
S11338B857540051089800F19802FC575400510AD3
S11338C89800F19802FC575400510B9800F19802A3
S11338D8FC575400510C9800F19802FC57540010FE
S11338E804D761EFC1C361CF2008AF38B4B800FC76
S11338F8B63500AF36B444130061F3EC1F39003019
S11339086400B800F6B802FCF14C00AF36B44413B6
S11339180061E3EC2F390030D007B800F6B802FC98
S1133928F14C00F6BF36B4E6B800F6B80230090028
S1133938B804F6B806FC2B5000AF38B4BDE8F4EA76
S11339488DEA9DEBADE806F012ADEA61D8A106F266
S1133958BDF213BDF0ADF0B800300A00B802FC8C1B
S1133968BF00ADF0BF38B4A236B4100861EFC2C0CE
S113397861CFD7A804BDF0FAF0AC0CBDF0FAF0ACF6
S113398840BDF2FAF0AC42BDF0ADF226F0BDF28DC6
S1133998F25C3F9DF0F4F1D7A804BDF0FAF0AC0C4A
S11339A8BDF0FAF0AC40BDF4FAF0AC42BDF2ADF4AF
S11339B846F261F8ECD83900FAF0AC42BDF2ADF049
S11339C806F2BDF2FAF28B705100BDF0ECDC39005E
S11339D8C9F0FFFFD7A804BDF0FAF0AC0CBDF2FAA9
S11339E8F2AC40BDF4FAF2AC42BDF0ADF446F0617D
S11339F8F8EC2B3A00FAF2AC42BDF0ADF206F0BD99
S1133A08F4FAF48B705100BDF0EAF2AA42A1BDF6B3
S1133A188DF65C3F9DF4F4F5DAF2ADF4784200ECEF
S1133A282F3A00C9F0FFFFD761EFC161CFA806BDE7
S1133A38F2FAF2AC0EBDF0EAF0AA40A1BDF68DF69A
S1133A485C3F9DF4F4F5FAF0AC42BDF6ADF446F6ED
S1133A5861F8EC4E3A00717BFAFAF0AC40BDF6AD71
S1133A68F006F6BDF6DAF68808480000FAF2AC0E5D
S1133A78BDF0DAF0ADF47840008C109DE8D4E8612C
S1133A88E8ECC03A00AF0001BDF68DF65C409DF449
S1133A988DE89DF5ADF444000061E8EC433B00710A
S1133AA85BE1FAF0AC42BDF4ADF006F4BDF4FAF40F
S1133AB88B9F10FFEC273B004AE80161E8ECFA3AD7
S1133AC800AF0401BDF68DF65C409DF4F4F5ADF449
S1133AD844000061E8EC433B00710BE2FAF0AC42AD
S1133AE8BDF4ADF006F4BDF6FAF68B9F44FFEC275F
S1133AF83B00AF4001BDF68DF65C409DF4F4F5AD96
S1133B08F444000061E8EC433B00710BE1FAF0ACCB
S1133B1842BDF4ADF006F4BDF4FAF48B9F48FFFA05
S1133B28F2AC0EBDF2EAF2AA42A1BDF48DF45C3FF8
S1133B389DF0F4F1DAF2ADF0784200717AFAC9F046
S1133B48010061EFC061CFD761EFC1C3C561CFA8E0
S1133B580ABDF6FAF6AC0EBDE8FAE8AC40BDEAAC2C
S1133B6842BDECADEA46EC61E8EC613B00FAF68C48
S1133B78109DF6D4F661E8EC9F3B00AF0001BDF060
S1133B888DF05C609DF4F4F5ADF444000061E8EC5C
S1133B98833B00ECDC3B004AF60161E8ECC43B00E3
S1133BA8AF0401BDF08DF05C609DF2F4F3ADF24416
S1133BB8000061E8ECA83B00ECDC3B00AF4001BD31
S1133BC8F28DF25C609DF0F4F1ADF044000061E820
S1133BD8ECC43B0061EFC4C2C061CFD7A806BDF0F6
S1133BE8EAF0AA40A1BDF48DF45C3F9DF2F4F3FA27
S1133BF8F0AC42BDF4ADF246F461F8EC213C00FAB5
S1133C08F0AC40BDF4ADF006F4BDF6DAF68804482D
S1133C180000DAF0ADF2784000D720048F12FF9844
S1133C280030C6B5B802FCE43B001004D720048F6A
S1133C3846FF9800303EB5B802FCE43B001004D7B8
S1133C4820048F4AFF980030B6B4B802FCE43B0065
S1133C581004D7AFC2B5BDF2AFC4B5BDF0ADF246DE
S1133C68F061F8EC8D3C00AFC4B50482B5168B9FA7
S1133C7810FFAFC4B5A1BDF28DF25C3F9DF0F4F125
S1133C88ADF0BFC4B5D7AF3AB5BDF2AF3CB5BDF0E2
S1133C98ADF246F061F8ECC03C00AF3CB504FAB4B0
S1133CA8168B9F44FFAF3CB5A1BDF28DF25C3F9DDE
S1133CB8F0F4F1ADF0BF3CB5D7AFB2B4BDF2AFB4D8
S1133CC8B4BDF0ADF246F061F8ECF33C00AFB4B427
S1133CD80472B4168B9F48FFAFB4B4A1BDF28DF241
S1133CE85C3F9DF0F4F1ADF0BFB4B4D78F12FF3050
S1133CF80700BF0A01D78F46FF300700BF0E01D760
S1133D088F4AFF300700BF4A01D7A804BDF0FAF074
S1133D188C109DF0D4F061E8EC743D007120F00043
S1133D28AF2401BDF28DF26C039DF08DF39DF1ADCE
S1133D38F0BF2401715AED715AE9716AED716AE9AB
S1133D48717AED717AE9302200BF1001309780BF93
S1133D58180171407000300700BF0A01302201BF0A
S1133D681201309744BF1A01EC193E004AF0016170
S1133D78E8ECCD3D007120F000AF2401BDF28DF2D6
S1133D886C0C9DF08DF39DF1ADF0BF2401710AEE2A
S1133D98710AEA711AEE711AEA712AEE712AEA3086
S1133DA82280BF1401309780BF1C0171407000301D
S1133DB80700BF0E01302281BF1601309744BF1E91
S1133DC801EC193E007130F000AF6401BDF28DF2D0
S1133DD86C039DF08DF39DF1ADF0BF6401710AEDA4
S1133DE8710AE9711AED711AE9712AED712AE9303B
S1133DF82200BF5001309780BF58017140700030D5
S1133E080700BF4A01302201BF5201309744BF5A0C
S1133E1801D7A804BDF0FAF08C109DF0D4F061E845
S1133E28EC763E00715BE1715BE5716BE1716BE50A
S1133E38717BE1717BE5AF2A01BDF28DF26C019DC6
S1133E48F08DF39DF1ADF0BF2A01AF2201BDF28DD3
S1133E58F26C039DF08DF39DF1ADF0BF220171105A
S1133E6821FF712001FF712821FFEC0F3F004AF068
S1133E780161E8ECC93E00710BE2710BE6711BE2CB
S1133E88711BE6712BE2712BE6AF2A01BDF28DF2AC
S1133E986C049DF08DF39DF1ADF0BF2A01AF2201B2
S1133EA8BDF28DF26C0C9DF08DF39DF1ADF0BF2247
S1133EB801711020FF710000FF710820FFEC0F3F13
S1133EC800710BE1710BE5711BE1711BE5712BE1CD
S1133ED8712BE5AF6A01BDF28DF26C019DF08DF393
S1133EE89DF1ADF0BF6A01AF6201BDF28DF26C03C2
S1133EF89DF08DF39DF1ADF0BF6201714021FF711A
S1133F083001FF713821FFD761EFC1C3C561CF20EC
S1133F1814A81EBDE8A820BDF4A822BDF6C9EA006D
S1133F28008DEA76E68696DD05311D96DFFBB80C32
S1133F38B810317B98129813300048B80030E80163
S1133F48B802A810B804A812B8068DF498088DF51C
S1133F58980B8DF6980A8DF79809FC26BE00ADF0EB
S1133F68B800ADF2B80288089DF4880B9DF5880A5C
S1133F789DF688099DF7ADF4B804ADF6B806FC22A1
S1133F88BE00ADF004FFFFBDF0ADF261D8A104FF9F
S1133F98FFBDF2ADF2311EB80E8DF161FB980D8DA7
S1133FA8F061FB980CA80CBDF088089DF4880B9D63
S1133FB8F5880A9DF688099DF7ADF0447F0061E312
S1133FC8ECD93F00A6EAADEA44100061E8EC293FC9
S1133FD800FAE88C109DF4A80C319DBDECADE8B84E
S1133FE800D4F461E8EC2E40008DF49808FC123DEE
S1133FF800AF2601BDF28DF25CF09DF08DF39DF1CA
S1134008ADF0BF2601BDF28DEA5C0F9DF06BF29D09
S1134018F48DF39DF5ADF4BF2601ADECBF10FFBFE1
S113402812FFECA140004AF40161E8EC6E4000FC88
S1134038123D00AF2601BDF28DF25C0F9DF08DF3A9
S11340489DF1ADF0BF2601BDF28DEA31496BF29DB9
S1134058F48DF39DF5ADF4BF2601ADECBF44FFBF6D
S113406846FFECA14000FC123D00AF6601BDF28D95
S1134078F25CF09DF08DF39DF1ADF0BF6601BDF2E9
S11340888DEA5C0F6BF29DF48DF39DF5ADF4BF667C
S113409801ADECBF48FFBF4AFFADE8B800FC1A3ECB
S11340A800101461EFC4C2C061CFD73262B4F6788D
S11340B8000030E803780200F67804003260B43077
S11340C8383078000030C6B5780C003082B5780EE8
S11340D800F14810003250B4F678000030E8037854
S11340E80200F6780400324EB430383078000030DC
S11340F83EB5780C0030FAB4780E00E1481000326E
S11341083EB4F678000030E803780200F67804003C
S1134118323CB430383078000030B6B4780C003013
S113412872B4780E005102481000D761EFC1C3C5BC
S113413861CF200AA814BDE8A816BDECF6B806B8E5
S113414808ADECB800A80606E8BDF0FAF08C0298B1
S113415802300A00B804FC714500ADF0BDEAADECCC
S1134168B800512E9802FCCB4200ADF006EABDF02F
S1134178A80806F0B808FBF8FF617906A806440306
S11341880061E8EC494100ADECB800FAE88C059808
S113419802300A00B804FC714500A80806F0BDF016
S11341A8100A61EFC4C2C061CFD72006A80ABDF0C7
S11341B8BDF2DAF2306830780000ADF0040200B8DD
S11341C800F6B802300400B804FCABAE001006D701
S11341D8A804BDF0BDF2DAF2306830780000DAF0F5
S11341E888064802008808480300880A48040088AA
S11341F80C480500D7320AB6306830780000F14818
S11342080200F1480300F1480400F1480500D761B1
S1134218EFC1C3C561CF2006A810BDEAA812BDEC42
S1134228A81406ECB804C9E80000A80446EC61F830
S1134238EC634200FAEAABBDF0ADEAB800FAEC8BE5
S11342489802ADF0BDF2FAF2ABBDF2FAF261FAAD42
S1134258E806F0BDE8A6ECEC324200ADE8BDF0108B
S11342680661EFC4C2C061CFD761EFC1C361CF207B
S113427806A80EBDEAA810BDE844000061F8ECAF3A
S11342884200B800FC71B200FAEAABBDF2ADEAB87C
S113429800ADE8B802ADF0B804FAF2AC02BDF2FA27
S11342A8F261FAECB14200BDF0100661EFC2C061E0
S11342B8CFD72004A808B800A80AB802FC714200A5
S11342C81004D72004A808BDF0BDF4FAF4ABBDF27D
S11342D8ADF0B800880A9802ADF2BDF4FAF4ABBDAB
S11342E8F2FAF261FA1004D761EFC1C361CF200476
S11342F8A80CBDE8B800510D9802FCCB4200ADF003
S1134308BDEAADE8B800510A9802FCCB4200ADF012
S113431806EABDF0100461EFC2C061CFD761EFC1F6
S1134328C3C561CF2036A842B808A844B80A88464D
S11343389DECF198354AEC0161F3EC494300CDEC6E
S11343480AAEF8043400B8108DEC9DE8F4E98DE960
S11343589DEA9DEBA808B800A80AB802ADE8B8041D
S1134368ADEAB806FC22BE00ADF0B80CADF2B80E4A
S1134378880C9DF18DEC708DF1D6609DF08DF076F2
S11343888808612E9DF0A810B8128DF04C0971FFB1
S113439861F3ECA443000C30ECA643000C379DF009
S11343A8A810BDF2DAF28DF0480000ADF2B1B810F1
S11343B8A80E440000A80C61F844000061F8ECD68B
S11343C84300A80CB808A80EB80AEC504300A8404B
S11343D8B800A812B802FC714200103661EFC4C2DA
S11343E8C061CFD761EFC1C361CF200CA814BDE869
S11343F8A816BDF4A818BDF6A81ABDF044000061BB
S1134408E8EC2B4400FAE8ABBDF0ADE8B8008DF455
S11344189802ADF0BDF2FAF2ABBDF2FAF261FAEC31
S1134428B64400440A0061E8ECA24400ADE8B800D0
S11344387174F761C8EC944400512D98028DF49876
S11344480B8DF5980A8DF698098DF79808FCCB42E0
S113445800ADF0BDEAADE8B800880B9DF4880A9D6C
S1134468F588099DF688089DF730000026F4B802FF
S113447830000061D8B126F6B804510A9806FC2524
S11344884300ADF006EABDF0ECB64400ADF4B80262
S1134498ADF6B804510AECB04400ADE8B800ADF488
S11344A8B802ADF6B8048DF09806FC254300100C4C
S11344B861EFC2C061CFD72008A80EBDF0A80CB820
S11344C800ADF0B802317B98049805A810B806FC32
S11344D8EC43001008D761EFC1C361CF2006A80ED2
S11344E8BDE8B800A810B802A812B804FCBF44007C
S11344F8ADF0BDEAADE8B800FCF04200ADF006EA64
S1134508BDF0100661EFC2C061CFD761EFC161CFC2
S11345182008A80EBDF2A810BDF4A812BDF6A81470
S1134528BDF044000061E8EC554500ADF2BDE8FA81
S1134538E8ABBDF0ADF2B8008DF49802ADF0BDF271
S1134548FAF2ABBDE8FAE861FAEC694500ADF2B8F5
S113455800ADF4B802ADF6B8048DF09806FC254316
S113456800100861EFC061CFD72008A80CB80088F4
S11345780E9802F19803F19804F19805A810B8066A
S1134588FC1345001008D761EFC1C361CF88089DAB
S1134598EBA80ABDF4A80CBDF288109DEAAFB401DB
S11345A8BDE88DEB76E68696DD05311D96DFFBBD0D
S11345B8F08DF06BE89DF68DF16BE99DF7ADF6BFD4
S11345C8B4014AEB0461F8EC8946004AEB0461F350
S11345D8ECFB45004AEB0261F8EC3F46004AEB026B
S11345E861F3EC6446004AEB0161F8EC1A4600EC0E
S11345F81947004AEB0661F8ECD346004AEB06611A
S1134608D8ECAE46004AEB0761F8ECF84600EC1922
S11346184700715AE6715BE2715AEE715AEAADF4D9
S1134628BF9201ADF2BF1AFFD4EA61F8EC19470052
S1134638715BE6EC194700716AE6716BE2716AEE28
S1134648716AEAADF4BF9401ADF2BF64FFD4EA61C4
S1134658F8EC194700716BE6EC194700717AE671BA
S11346687BE2717AEE717AEAADF4BF9601ADF2BFDE
S113467866FFD4EA61F8EC194700717BE6EC194748
S113468800717AE7717BE3717AEF717AEBADF4BF6D
S11346989801ADF2BF68FFD4EA61F8EC19470071DC
S11346A87BE7EC194700710AD4710BD0710ADD71EC
S11346B80AD8ADF4BF9A01ADF2BF6AFFD4EA61F833
S11346C8EC194700710BD4EC194700711AD4711B0B
S11346D8D0711ADD711AD8ADF4BF9C01ADF2BF6C6C
S11346E8FFD4EA61F8EC194700711BD4EC194700B0
S11346F8712AD4712BD0712ADD712AD8ADF4BF9EEA
S113470801ADF2BF6EFFD4EA61F8EC194700712BD2
S1134718D4880ED161F8EC394700AFBE01BDF48DE1
S1134728F06BF49DF28DF16BF59DF3ADF2EC5A4705
S113473800AFBE01BDF68DF09DF27AF2FF8DF19DBA
S1134748F37AF3FF8DF25BF69DF48DF35BF79DF539
S1134758ADF4BFBE01AFBA01D4EA61F8EC8A4700F0
S1134768BDF68DF09DF27AF2FF8DF19DF37AF3FF99
S11347788DF25BF69DF48DF35BF79DF5ADF4EC9A41
S11347884700BDF48DF06BF49DF28DF16BF59DF34C
S1134798ADF2BFBA01AFB201BDF48DF06BF49DF276
S11347A88DF16BF59DF3ADF2BFB20161EFC2C0614B
S11347B8CFD788049DF6AFB401BDF48DF676E686AE
S11347C896DD05311D96DFFBBDF28DF26BF49DF08D
S11347D88DF36BF59DF1ADF0BFB401AFBA01BDF433
S11347E88DF29DF07AF0FF8DF39DF17AF1FF8DF053
S11347F85BF49DF28DF15BF59DF3ADF2BFBA01AFA9
S1134808B801BDF48DF05BF49DF28DF15BF59DF379
S1134818ADF2BFB8014AF60461F8EC8148004AF6E3
S11348280461F3EC5148004AF60261F8EC7348005D
S11348384AF60261F3EC7A48004AF60161E8EC9220
S11348484800715AE6EC9248004AF60661F8EC8F83
S113485848004AF60661D8EC8848004AF60761E839
S1134868EC924800712AD4EC924800716AE6EC9202
S11348784800717AE6EC924800717AE7EC924800B5
S1134888710AD4EC924800711AD4AFB001BDF28D0C
S1134898F25C9E9DF0F4F1ADF044000061E8ECBEDA
S11348A84800AFB401BDF28DF26C019DF08DF39D0B
S11348B8F1ADF0BFB401D761EFC1C3C561CF200C1E
S11348C8A816BDF4A818BDF6AFB001BDF28DF25C10
S11348D8DE9DF0F4F1ADF044000061F8ECEE480020
S11348E8E4ECECF14800CDEC02ADF644FFFFADF486
S11348F861F844FFFF61E8EC1149007120E7FF61AA
S1134908FD7128E7FFEC8C4900ADF4BF24BAADF67D
S1134918BF26BA7100D4FFAF20BAB808AF22BAB81C
S11349280AADF4B800ADF6B802304100B804F6B8E0
S113493806FC22BE00FBF8FFADF0610908BDF0AD2E
S1134948F261D8A161090ABDF2ADF0BF20BAADF297
S1134958BF22BA4AEC0261E8EC6A490061FDEC6CDA
S1134968490061EDAF24BABDE8AF26BABDEAADEAA5
S1134978440000ADE861F844000061E8EC5B4900DC
S11349887108D4FF100C61EFC4C2C061CFD78FF097
S1134998005C019DF0D4F061F8ECB54900AFB001BA
S11349A844000061E8ECB549007108F000D78FF0C5
S11349B8005C019DF0D4F061E8ECD349007100F08B
S11349C80000000000305000BFB601D7C9F0000055
S11349D8D7A804BF1EBAD72008A80CBDF0A80EBDDE
S11349E8F2ADF2440F00ADF061F844404261E3ECEB
S11349F8004A00F6EC194A00304042B800300F0073
S1134A08B802ADF0B804ADF2B806FC22BE00ADF0B1
S1134A18B1BF9AAF1008D78FFAFF9DF0717BFAAF38
S1134A2828BABDF4AF2ABABDF68DF09FFAFFADF4EB
S1134A38BDF0ADF6BDF2D761EFC1C3C561CF2008A3
S1134A48C9EC2AB6EAECA944000061F8ECDA4A0099
S1134A58FC1F4A00ADF0BDE8ADF2BDEAFAECADE8E2
S1134A6861290ABDF4ADEA61D8B161290CBDF6DA51
S1134A78ECADE8780A00ADEA780C00AC06B804ACF2
S1134A8808B806A80426F4BDF0A80661D8B126F62D
S1134A98BDF2DAECADF0780600ADF2780800A806AD
S1134AA846F6A80461F846F461F3ECDA4A00FAEC35
S1134AB8EAECADF0610902BA06ADF261D8A1610968
S1134AC804BA08ADE8B800ADEAB802ABBDF2DAF250
S1134AD861DAADEC040E00BDEC449AB661E8EC4C26
S1134AE84A00100861EFC4C2C061CFD761EFC1C3E7
S1134AF861CF2008D5AAB661E8EC5F4C008FFAFFB5
S1134B085C809DF4AF20BAD4F461E8EC544B00B84F
S1134B1800AF22BAB8028FD0FF9DF7AF8A01BDF467
S1134B288FD0FF9DF65AF70161E8EC8D4B005AF6D9
S1134B380161F8ECAE4B00A800040100B800A8021B
S1134B4861D8A1040000B802ECAA4B00B800AF2257
S1134B58BAB802AF8A01BDF4AF20BAB804AF22BA1A
S1134B68B806A804BDF6A806BDE8A80246E8A80049
S1134B7861F846F661E8ECA24B00ADF444FEFF612F
S1134B88E8ECAE4B00A800040100B800A80261D804
S1134B98A1040000B802ECAE4B00A804B800A806B3
S1134BA8B802C9F4FEFFA802315D9DEB8801708844
S1134BB802315D9DEAA800315DBDE8FBF8FFADE870
S1134BC861090000BDE8ADEA61D8A1610902BDEA46
S1134BD8ADEA315D9DEBD8E98DEA315D9DEAADE83A
S1134BE8315DBDE8ADE861090000BDE8ADEA61D812
S1134BF8A1610902BDEAADEA315D9807D8E98DEAF9
S1134C08315D9806ADE8315DB804A80426E8B80417
S1134C18A80661D8B126EAB806A804311DBDE8A8DB
S1134C280661EEBDEAADE861090000BDE8ADEA61E0
S1134C38D8A1610902BDEA30FEFF26F4BDF0F4F202
S1134C488DF29DF3ADF006E8BDF4ADF261D8A1068E
S1134C58EABDF6ECE04C00FC1F4A00ADF2312D9D94
S1134C68F7D8F18DF2312D9DF6ADF0312DBDF4ADAF
S1134C78F406F0BDF4ADF661D8A106F2BDF6ADF6C2
S1134C88312D9DF3D8F58DF6312D9DF2ADF4312DEE
S1134C98BDF0ADF406F0BDF4ADF661D8A106F2BDE1
S1134CA8F6ADF6312D9DF3D8F58DF6312D9DF2AD87
S1134CB8F4312DBDF0ADF406F0BDF4ADF661D8A124
S1134CC806F2BDF6ADF6313D9DF7D8F58DF6313DCA
S1134CD89DF6ADF4313DBDF4ADF4BDF0ADF6BDF2D5
S1134CE8100861EFC2C061CFD761EFC1C3C561CFFE
S1134CF82004A80EBDEAA810BDECD5ABB661E8EC5B
S1134D08504D00FCF44A00ADF0BDE8ADEC440000A1
S1134D18ADEA61F844000061F8EC5C4D00FCF44A2B
S1134D2800ADF026E844E70361E3EC134D00ADEA77
S1134D3804FFFFBDEAADEC61D8A104FFFFBDECADF3
S1134D48E804E803EC114D00ADEAB800ADECB80294
S1134D58FCBF4800100461EFC4C2C061CFD761EF43
S1134D68C1C361CF200CD5ABB661E8ECC04D00FCE3
S1134D78F44A00ADF0B808ADF2B80AA814B804F1C2
S1134D8898069807C9E80000ADE8BDEAA80646EA0F
S1134D98A80461F846E861E3ECDB4D00FCF44A0042
S1134DA8FBF8FFADF0612908BDE8ADF261D8B16147
S1134DB8290ABDEAEC944D00A814B80030E803B8F9
S1134DC802FC88BF00ADF0B800F19802F19803FC2A
S1134DD8BF4800100C61EFC2C061CFD761EFC16159
S1134DE8CF2004880A9DF00C809DE84AF00E61E308
S1134DF8EC144E008DF00CF09DF14AF10A61E3ECDD
S1134E08144E004AE80161F3EC1C4F007150F000A5
S1134E18F530FF710AE7710BE3711AEF711AEB4A67
S1134E28E80161E3EC574E008FA9B69DF14AF10100
S1134E3861E8EC464E00CF100040EC5A4E004AF1AF
S1134E480261E8EC574E00CF100080EC5A4E00F592
S1134E5810008FABB64C0361E8EC6D4E00CF32FF07
S1134E68E3EC714E00CF32FF208F9CAF9F11008F6F
S1134E78A8B69F12008DF09F31FF300500B800FCE2
S1134E88664D00710A308FABB64C0361E8ECCA4E2C
S1134E9800710BE7712010008FA7B69DF0D4F06164
S1134EA8E8ECBF4E0030FFFFB80030FFFFB802FC4B
S1134EB8BF4800ECA04E0071281000F5A7B6ECE33B
S1134EC84E00E6B800FC664D00717A308FE3FF5C53
S1134ED8019DF0D4F061F8ECD44E00AF1EFF4AE80F
S1134EE80161F3EC074F00710BE3717A308FE3FF34
S1134EF85C019DF0D4F061F8ECF54E00AF1EFF3173
S1134F086EBDF0710AE7710BE3710B307158F00054
S1134F18EC204F00C9F00000100461EFC061CFD746
S1134F2861EFC1C3C561CF2016518098008DF498F4
S1134F380B8DF5980A8DF698098DF79808FCE44DC1
S1134F4800ADF0B81051819800FCE44D00ADF0BDFF
S1134F58E844000061E8EC664F00C9E8010030A4A9
S1134F6838B812F6B814A812BDEAA814BDECA810F3
S1134F78BDF48811317B9DF69DF7ADEAB800ADEC20
S1134F88B802ADF4B804ADF6B806FC06BC00ADE84A
S1134F98B80C317B980E980FADF0B800ADF2B8029A
S1134FA8ADE8B804A80EB806FC26BE00ADF004FCB3
S1134FB8D6BDF0ADF261D8A104FFFFBDF288204C44
S1134FC80161E8ECEE4F00ADF0B800ADF2B8023084
S1134FD8ECFFB80430FFFFB806FC26BE00ADF004B1
S1134FE84D00EC095000ADF0B800ADF2B80230DC69
S1134FF8FFB80430FFFFB806FC26BE00ADF0041964
S113500800BDF0101661EFC4C2C061CFD72002A85A
S11350180644000061F8EC285000B800FCD0AE004B
S11350281002D761EFC1C361CF2010A818BDE8A84A
S11350381ABDEAA81CBDF4A81EBDF6ADEA46F67171
S1135048FF7177F7ADE861F846F461C8ECC4500025
S11350588DF4980B8DF5980A8DF698098DF79808B4
S1135068FC08AF00ADF0B80C317B980E980FA80C73
S1135078B800A80EB802880B9DF4880A9DF5880923
S11350889DF688089DF7ADF426E8B804ADF661D816
S1135098B126EAB806FC06BC00ADF0B800ADF2B81B
S11350A80230FF7FB804F6B806FC26BE00ADE80659
S11350B8F0BDE8ADEA61D8A106F2BDEAADE8BDF0FD
S11350C8ADEABDF2101061EFC2C061CFD7AF9AB696
S11350D844000061F8ECE75000BDF2DAF261DAD777
S11350E8AF9CB644000061F8ECFA5000BDF2DAF265
S11350F861DAD7E5A7B6D7AF20BABDF0AF22BABDFB
S1135108F2ADF0040100BDF0ADF261D8A1040000D5
S1135118BDF2ADF0BF20BAADF2BF22BAD78F28B620
S11351289DF4C9F010B6ADF04428B661C8ECA3519B
S113513800ADF0BDF6EAF6895C019DF2D4F261F89F
S1135148EC985100D4F461E8EC5D5100DAF0FAF01F
S11351588C05480100FAF08DF44E0161E8EC8451A5
S113516800FAF0AC02BDF28C049DF57AF5FFADF2BD
S1135178BDF6FAF68B5BF59BEC985100D4F461E824
S1135188EC985100FAF0AC02BDF6EAF6896E04997F
S1135198ADF0040600BDF0EC2E51008F28B6819DB9
S11351A8F04AF0FF61F8ECB951009F28B6ECBC5105
S11351B800F528B6D761EFC1C361CF2002880A9DE4
S11351C8F2880C9DEA4AF21861F3EC2354008DF23C
S11351D80CF29DF04AF00761F3EC2952004AF214EC
S11351E861E8ECF6510071786E00EC2952004AF23D
S11351F81561E8EC07520071086C00EC2952008F25
S113520876009DF18DF20CF59DF0D4F161F8EC2453
S113521852008DF14BF061E3EC2952008DF09F763A
S1135228008DF2500ED6047630BDE88DF270510030
S1135238BDF404ACB6BDF0BDF6EAF689D161F8EC6C
S11352484853008DF2500ED6047630BDF2FAF28C33
S1135258029DF2ADF0BDF6DAF6F14800004AF2E03C
S113526861E8ECC05200C9F00000ADF00106F0019D
S1135278BDF20410B614895C019DF6D4F661F8EC0D
S1135288AD5200ADF20410B61489311A9DF6CDF76B
S113529800ADF646F461E8EC485300ADF20410B6EC
S11352A814895CFE99A6F0ADF044040061E8EC7240
S11352B852005106EC4253004AF20461F8EC2453BC
S11352C8004AF20461F3ECF452004AF20261F8EC89
S11352D81653004AF20261F3EC1D53004AF20161CD
S11352E8E8EC485300AF9201EC3553004AF20661EA
S11352F8F8EC3253004AF20661D8EC2B53004AF218
S11353080761E8EC485300AF9E01EC355300AF94B5
S113531801EC355300AF9601EC355300AF9801EC1E
S1135328355300AF9A01EC355300AF9C01BDF044EE
S1135338098461E8EC4853008DF29800FCBA4700F0
S11353484AEA0561F3EC2354008DEA76E18696DD9A
S113535805311996DFFB9DF05C229DF1D4F161E8DB
S1135368ECDC53005AF01D61F8EC235400FAE88B86
S11353789DF2AC04BDF0FAF08DF261DD717BFA6D3B
S11353889B61CDFAE8AC06BDF04AEA0261F8ECA3E9
S113539853004AEA0461E8ECB45300FAF08DF26170
S11353A8DD717BFA6D9B61CDECC35300FAF08DF28D
S11353B87CFF61DD717BFA5D9B61CD8DEA0CFD9DFF
S11353C8EAFAE8AC08BDF04AEA0161F3EC145400C7
S11353D8EC035400FAE88B9DF2AC04BDF0FAF08DAE
S11353E8F27CFF61DD717BFA5D9B61CDFAE8AC0A62
S11353F8BDF04AEA0561E8EC145400FAF08DF26154
S1135408DD717BFA6D9B61CDEC235400FAF08DF2CB
S11354187CFF61DD717BFA5D9B61CD100261EFC297
S1135428C061CFD720048F98AF4CFF61F8EC545477
S113543800E19800FCBA4700FC96490088089800E7
S1135448F19802FCBD510051FF9F98AF1004D78812
S1135458044C19DE4F500ED612797A30164976303C
S11354685D79823061E8797C301688060CFF4977CB
S11354783031231931130B3103047181EF267191F3
S1135488EF2231030471A1EF1B71B1EF1731130B34
S113549831030471C1EF0D71D1EF0931030471E1D6
S11354A8EF0271F1D761EFC1C3C561CF201A882417
S11354B89DEC4AEC1861F3EC815800A82644FE00E0
S11354C871FF61F3ECE45400A826B8144400007199
S11354D8FF61C8ECE95400F6ECE7540030FF00B86B
S11354E8148DEC500ED6047630BDF0FAF08C029D83
S11354F8ED8DEC705100B8184AEDE061E8EC075600
S113550800FCB64900A81804ACB6BDE8EAE889D19D
S113551861E8EC2F55008DEC9800E19802FCBD5130
S113552800DAE8E1480000300400B810F6B816A81C
S11355381601BDF0A81606F001BDF00410B61489D2
S11355485C019DF2D4F261E8EC675500A8104404AC
S11355580061E8EC7F5500A816B810EC7F5500AD43
S1135568F00410B61489311A9DF0CDF100A818463C
S1135578F061F8EC945500FBF8FF617916A816441D
S1135588040061E8EC375500ECCF5700A816B810B2
S1135598A81001BDF0A81006F001BDF20410B6145D
S11355A8895C019DF4D4F461F8ECFB5700ADF20476
S11355B810B61489311A9DF4CDF500A81846F46183
S11355C8E8ECFB5700DAF288144815B6AFB001BD11
S11355D8F28DF25C409DF0F4F1ADF044000061E816
S11355E8EC81580051069800E6B802300004B8046B
S11355F88DF19806E19808FC8F4500EC8158008DE0
S1135608F4980D8DF5980C8DF6980B8DF7980AFC87
S1135618B64900AFB001BDF28DF25C019DF0F4F122
S1135628ADF044000061E8EC8F5600AFB401BDF260
S11356388DF26C019DF08DF39DF1ADF0BFB4013096
S11356480188BF9001AF9AAFBF18FFAFB801BDF290
S11356588DF25CFE9DF08DF39DF1ADF0BFB801AF06
S1135668BA01BDF28DF25CFE9DF08DF39DF1ADF0B3
S1135678BFBA01AFB201BDF28DF26C019DF08DF39A
S11356889DF1ADF0BFB201A814BDF2B810317B98FA
S1135698129813AF9AAFA1BDF4F4F68DF69DF7AD49
S11356A8F2B800A812B802ADF4B804ADF6B8068D85
S11356B8F4980D8DF5980C8DF6980B980AFC06BC99
S11356C800ADF0B800ADF2B80230FF00B804F6B887
S11356D806FC22BE00ADF0BDE8A81804ACB6BDF0C7
S11356E8880B9DF6ADF0BDF2EAF2894BF661E8EC61
S11356F84857008DEC9800E198028DF0980F8DF1D1
S1135708980EFCBD51008DEC9800880A9802FC574D
S113571854008DED9800300984B802ADE8B804E16E
S11357289806880A9808FC8F4500880F9DF0880E13
S11357389DF1ADF0BDF4DAF4E1480000EC815800C5
S11357484AED0461F8ECB457004AED0461F3EC7EC9
S113575857004AED0261F8ECA257004AED0261F3E2
S1135768ECAB57004AED0161E8EC815800ADE8BFA5
S11357781AFFEC8158004AED0661F8ECC657004A56
S1135788ED0661D8ECBD57004AED0761E8EC815895
S113579800ADE8BF6EFFEC815800ADE8BF64FFECD4
S11357A8815800ADE8BF66FFEC815800ADE8BF68DA
S11357B8FFEC815800ADE8BF6AFFEC815800ADE802
S11357C8BF6CFFEC815800A81044040061E8EC9811
S11357D855008DEC9800E4F0A814447F0071FF6133
S11357E8F3ECEF5700F4F08DF09802FC575400ECFA
S11357F8815800A81006F001BDF00410B614895CA5
S1135808FE998DEC31199DF2ADF00410B614895C43
S113581801DAF06BF24810B688144815B64811B688
S11358288DEC500ED6047630BDF0FAF0AC0CBDF217
S1135838A81001BDF0A81006F0010410B604020077
S1135848BDF4DAF4ADF27800008DEC500ED604768F
S113585830BDECFAEC8B9DF2A81001BDF0A810063F
S1135868F001BDF0DAF08DF24814B6ADF00410B6CC
S113587814896C0199ECD45500101A61EFC4C2C0A4
S113588861CFD72004AFA2B6BDF0AFA4B6BDF2ADC8
S1135898F244FFFFADF061F844FFFF61F8ECC4582F
S11358A800AFA0B646F2AF9EB661F846F061D8ECF8
S11358B8C458008F98AF9800FC2C54008F98AF9D63
S11358C8F14AF1FF61F8EC005900AF9EB6040100FB
S11358D8BF9EB6AFA0B661D8A1040000BFA0B68F22
S11358E8A6B69DF07AF0018DF09FA6B68DF19800CA
S11358F88DF09802FC5754001004D78FA8FF9FC559
S1135908B6717BFACF770009CFF50080FC4B7100A4
S1135918FCA27100717AFAD7FCD44900ADF04400B6
S11359280061E8EC3F5900FC3C3400FCEA3800FC18
S11359383F4A00EC335900C9F00000D7EC44590041
S11359488F9EFF5C109DF0D4F061F8EC6D590071E6
S1135958489EFFAFC8B644000061F8EC6D5900BD1D
S1135968F2DAF261DA8F9EFF5C089DF0D4F061F8F8
S1135978EC92590071389EFFAFC6B644000061F836
S1135988EC925900BDF2DAF261DAD7200A30CAB6CD
S1135998B800F19802F19804F19806F19808FCD837
S11359A84100100AD7200A30D0B6B800F19802F1A5
S11359B89804F19806F19808FCD84100100AD720F9
S11359C80A30DEB6B800F19802F19804F19806F1AD
S11359D89808FCD8410030D6B6B800FCB241001093
S11359E80AD7200A30E4B6B800F19802F19804F115
S11359F89806F19808FCD84100100AD7200A30EA22
S1135A08B6B800F19802F19804F19806F19808FCE8
S1135A18D84100100AD7200A30F0B6B800F198022D
S1135A28F19804F19806F19808FCD84100100AD7B7
S1135A38200A30F6B6B800F19802F19804F19806F5
S1135A48F19808FCD84100100AD7A804BDF0DAF090
S1135A58F1480600DAF0F1480700F1480800C9F2F5
S1135A680000ADF006F2BDF4DAF4F1480900A6F23C
S1135A78ADF244200061E8EC6A5A00DAF0F14829F2
S1135A8800F6782A00FAF0AC3644000061F8ECA07D
S1135A985A00BDF2DAF261DAD72002C9F0FCB6ADD9
S1135AA8F0BDF2DAF23060B4780000F1480200ADDB
S1135AB8F0B800FC525A001002D7323DB7F1480042
S1135AC800F1480100F1480500F1480700300200E0
S1135AD8780900F6780B00F1482300F6782D003099
S1135AE8E631782B00F1483000D788049F4AFF8FAD
S1135AF8E1FF5C029DF0D4F061F8ECF75A00711BE9
S1135B08E1D7200251FF9800FCF25A008F4AFF9D0A
S1135B18F01002D72004A808BDF0FAF08C0498000D
S1135B28E19802FC5754001004D72004A808BDF0DB
S1135B38FAF08C049800F19802FC5754001004D72A
S1135B4861EFC161CF2002A808BDE8EAE88A06D15E
S1135B5861F8ECAF5B00CF4AFFFFFAE8AC08BDF090
S1135B68DAE8A1780800ADF044000261F3EC8F5B39
S1135B78008FE1FF5C029DF0D4F061F8EC795B00E2
S1135B88711BE1EC5E5B008FE1FF5C029DF0D4F0D9
S1135B9861F8EC8F5B00711BE1ADE8B800FC1C5B9D
S1135BA800DAE8F1480600100261EFC061CFD7615E
S1135BB8EFC161CFFC1F4A00ADF0BDE8FC0A5B00F1
S1135BC84AF0FF61F8ECEB5B00FC1F4A00ADF026DD
S1135BD8E8BDF0A80846F061F3ECC45B00F4F0EC0F
S1135BE8ED5B00E4F061EFC061CFD761EFC1C3C5DD
S1135BF861CF200AA814BDE8A818BDEAA81ABDEC0C
S1135C08ADE8B800FC485B00ADE8B800FC325B00C6
S1135C18ADE8B800302C01B802FCB75B0088166CFC
S1135C28409800FCF25A00301800B804A804B806DA
S1135C38F198089809ADEABDF0ADECBDF2A806BD2F
S1135C48F4A808BDF6E8F4D3DD15ADF2311EBDF2B3
S1135C588DF161FB9DF18DF061FB9DF093DFEB8D80
S1135C68F09800FCF25A00A80404F8FFB80444F8B9
S1135C78FF61E8EC345C008816D161F8EC975C00AD
S1135C884C0861F8EC9E5C00CDF0FFECA15C00CD03
S1135C98F095ECA15C00CDF0878DF09800FCF25AE9
S1135CA800F4EAFC0A5B00DAE88DF0480B00D171D5
S1135CB8FF61C8ECCE5C004AEAFF61F8ECCE5C00F8
S1135CC8A4EAECAB5C00100A61EFC4C2C061CFD790
S1135CD861EFC1C361CF2002A80ABDE8FC1F4A00D6
S1135CE8ADF0BDEAFC0A5B00DAE88DF0480B004A27
S1135CF8F0FF61E8EC195D00FC1F4A00ADF026EAEC
S1135D08442C0161E3ECEC5C00DAE8510FEC265D0D
S1135D18004AF0FE61F8EC375D00DAE8510D4805F9
S1135D2800ADE8B800FC1C5B00F4F0EC395D00E45D
S1135D38F0100261EFC2C061CFD761EFC1C3C56182
S1135D48CF2008A812BDE8A814BDF4A816BDF6A86B
S1135D581ABDEA44000061F8ECD25E00A81806EA0D
S1135D6844000261F3ECD85E00EAE88A06D161F8DF
S1135D78ECA25D00FAE8ABBDF0AC02BDF2ADF646AC
S1135D88F2ADF461F846F061E8ECA25D00FAE8A827
S1135D981861490861C8EC0F5E00DAE8ADF47800D0
S1135DA800ADF6780200EAE88A0C4C0361F8ECCE00
S1135DB85D00D8F58DF6311DBDF6ADF4311D9DF6A7
S1135DC8ADF4319DBDF4ADE8B80051119802ADF4BD
S1135DD8B804ADF6B806FCF35B00D4F061F8ECF552
S1135DE85D00DAE85103480500ECD85E00ADE8B878
S1135DF800FCD85C00D4F061F8ECD85E00DAE8F670
S1135E08780800E1480600CF4AFFFFA81816EAE818
S1135E18AA084761C8EC425E008FE1FF5C029DF06E
S1135E28D4F061F8EC215E00711BE1CF4AFFFFEA70
S1135E38E8AA08A1BA08EC135E00ADEAB1BDF2C93C
S1135E48F00000ADF046F261C8EC835E008FE1FF1C
S1135E585C029DF4D4F461F8EC555E00711BE18F8B
S1135E684AFF9DF6A81C06F0BDECDAEC8DF6480056
S1135E7800CF4AFFFFA6F0EC4B5E008FE1FF5C0207
S1135E889DF0D4F061F8EC835E00711BE18F4AFF4A
S1135E989DF0A81C06F2BDF4DAF48DF0480000FA6F
S1135EA8E8AC0806EABDEADAE8780800EAE88A0A0B
S1135EB8D161F8ECCA5E00ADEA44FF0161E3ECD2BB
S1135EC85E00ADE8B800FC485B00E4F0ECE25E007C
S1135ED8ADE8B800FC1C5B00F4F0100861EFC4C224
S1135EE8C061CFD7200CA810B800A812B802A81413
S1135EF8B804F6B806300002B808A816B80AFC4276
S1135F085D00100CD761EFC161CF2002A808BDE87D
S1135F18880A9F4AFFA80CBDF0040002BDF28FE175
S1135F28FF5C029DF4D4F461F8EC265F00711BE178
S1135F38FAF08B9F4AFF8FE1FF5C029DF4D4F46171
S1135F48F8EC3E5F00711BE1FAF08C019F4AFFA652
S1135F58F0A6F0ADF046F261E8EC265F008FE1FFB1
S1135F685C029DF0D4F061F8EC655F00711BE151AF
S1135F78FF9800FCF25A0051FF9800FCF25A00FC0A
S1135F880A5B00DAE88DF0480B005AF01F4AF00566
S1135F9861F8ECB35F00DAE85111480500ADE8B8E0
S1135FA800FC1C5B00F4F0ECB55F00E4F010026147
S1135FB8EFC061CFD761EFC161CF2008A80EBDE85B
S1135FC8A810BDF0A812BDF2ADF2440000ADF06116
S1135FD8F844000061E8ECEA5F00DAE85112EC8D5D
S1135FE86000EAE88A0C4C0361F8EC0A6000D8F116
S1135FF88DF2311DBDF2ADF0311D9DF2ADF0319D34
S1136008BDF0ADE8B80051189802ADF0B804ADF28F
S1136018B806FCF35B00D4F061F8EC2E6000DAE813
S11360285104EC8D6000ADE8B80051FE9802A81444
S1136038B804FC0D5F00D4F061F8EC906000ADE8A2
S1136048B800305802B802FCB75B00D4F061E8EC41
S1136058636000DAE85115EC8D6000ADE8B80051D2
S11360680D9802F6B804F6B806FCF35B00D4F061A8
S1136078E8EC896000FC0A5B00D4F061F8EC9E60EF
S113608800DAE85114480500ADE8B800FC1C5B00D0
S1136098F4F0ECA86000ADE8B800FC1C5B00E4F088
S11360A8100861EFC061CFD761EFC161CF2008A8A4
S11360B80EBDE8FAE8AC1CB800E6B802F6B804ADC0
S11360C8E8040600B806FCC16B00D4F061F8EC06DD
S11360D86100FAE8AC1A440000AC1861F844000006
S11360E861E8EC046100FAE8AC06DAE8781800AC78
S11360F808781A00EAE88A046C809A04E4F0100824
S113610861EFC061CFD761EFC161CF2006A80CBD94
S1136118E8FAE8AC0EB800FAE8AC10B802880E98B1
S113612804FC816800D4F061F8EC476100FAE88C5B
S113613812705100315D0492B7BDF0EC4B6100C997
S1136148F00000100661EFC061CFD761EFC1C3C58D
S113615861CF201EA828BDECA82ABDE8A82CBDEA5A
S1136168FAEC8C059DF4D4F461F8EC966100FAEC31
S1136178AC14BDF0AC16BDF2ADEA46F2ADE861F878
S113618846F061E3EC9E6100F4F0EC0763008DF4E3
S11361989DF0EC0763004AF40261F8EC016300AD7A
S11361A8EA440000ADE861F844000061E8ECD56118
S11361B800DAECADE8780600ADEA780800ADE878D6
S11361C80A00ADEA780C00E4F0EC076300FAECACE2
S11361D80AB808AC0CB80AAC1CBDF0FAF08C0E7006
S11361E85100040900B81CA80804FFFFBDF0A80A60
S11361F861D8A104FFFFBDF2A81CB810F198129849
S113620813A810BDF4A812BDF6E8F4D3DD15ADF259
S1136218311EBDF28DF161FB9DF18DF061FB9DF0A6
S113622893DFEBADE804FFFFB80CADEA61D8A10435
S1136238FFFFB80EA81CB81488139816881398176B
S1136248A814BDF4A816BDF6E8F4D3DD15A80E31DC
S11362581EB80E880D61FB980D880C61FB980C9391
S1136268DFEBA80E46F2A80C61F846F061D8EC8C76
S11362786200A80A440000A80861F844000061E824
S1136288EC9E6200FAECAC18DAEC780600AC1A78EA
S11362980800ECAD6200A80C26F0B80CA80E61D872
S11362A8B126F2B80EA80CB818A80EB81AADEC04AA
S11362B80600B810A81A440000A81861F8440000A1
S11362C861F8EC016300FAECAC1CB800AC06B80247
S11362D8AC08B804A810B806FCF36800A81804FFB2
S11362E8FFB818A81A61D8A104FFFFB81AD4F0613E
S11362F8E8ECBC6200EC076300DAECECC561001062
S11363081E61EFC4C2C061CFD761EFC1C3C561CFFD
S11363182006A810BDECEAEC8A05D161F8ECC96343
S113632800EAEC8A04D171FF61C8ECC16300ADECEA
S1136338B800E19802FC0E6100ADF044000061F879
S1136348ECC96300EAEC8A054C0161F3EC6663006E
S1136358FAECAC14DAF0781C00AC16781E00FAECEF
S1136368AC18BDE8AC1ABDEADAF0ADE8781A00ADAD
S1136378EA781400AF88B7BDF244000061F8ECB9BC
S11363886300ADF0041800B800ADF0041600B802BC
S11363988DF098058DF19804ADF2BDF4DAF461DA64
S11363A888059DF088049DF1FAF0AC18DAF07812AB
S11363B800EAEC8A045C7F9A04FC006800ECCB6376
S11363C800F4F0100661EFC4C2C061CFD761EFC119
S11363D8C3C561CF2042A84CBDECEAEC8A054C0148
S11363E861E8EC3B6400FAEC8C049DF05C029DF1DE
S11363F8D4F161F8EC3B64005AF00461F8EC5064A1
S113640800FAECAC14BDF4AC16BDF6AC0C46F6AC14
S11364180A61F846F461F8EC506400ADECB800ADDC
S1136428F4B802ADF6B804FC536100D4F061E8ECAA
S1136438506400DAECE6780200F6B80EBDF01042BB
S113644861EFC4C2C061CFD7A850B818EC9F6500EB
S1136458AC1CBDF0EAF08A04919DF2D8E98DEA31CA
S11364687D9DF4ADEA317D9DF5ADEA319EBDF68D95
S1136478F25BF498168DE898148DE95C01981588F8
S113648816D161F8ECBA6500A8141630000227B8D2
S11364980CA818BDF2B81AA80C46F261C8ECAB6493
S11364A800B81AFAECAC0604FEFFBDF4AC0861D8D7
S11364B8A104FFFFBDF6AC1CBDF0FAF08C0E7051C0
S11364C800B810F198129813A810BDF0A812BDF2E4
S11364D88DF0D1DD1175ADF6DAF4311C61EE95DF7E
S11364E8F9BDF613BDF4FAECAC1CBDF2FAF2ADF446
S11364F8610910BDF4ADF661D8A1610912BDF68831
S113650816982C8813982D982E982FFBF8FFADF425
S113651861092CBDF4ADF661D8A161092EBDF6A8B8
S11365281A44000261E8EC9C6600AFA0AF46F6AFDF
S11365389EAF61F846F461E8EC50650030FFFFBF98
S11365489EAF30FFFFBFA0AFAF90B7B800ADF4B8AF
S113655802ADF6B804A84EB806FCBD5F00D4F061DD
S1136568F8EC3B6400A84E040002B84EA81A16A81A
S11365781827B818A81AB830F198329833FBF8FFDE
S1136588EAECDAECAA0A610930780A00AA0C61D8A4
S1136598A1610932780C00FAECAC0ABDE8AC0CBD78
S11365A8EAA818FAEC44000061E8EC586400EC6DC1
S11365B86700A81444000061E8EC906400FAECACAD
S11365C806B81CAC08B81EA81E440000A81C61F834
S11365D844000061E8EC0A6600FAECAC18B820AC98
S11365E81AB822A822440000A82061F844000061D7
S11365F8F8EC786600A820DAEC780600A822EC9576
S11366086600ADF0B800A81CB802A81EB804AEF81D
S113661804420004FCFFB806FCF36800D4F061E807
S1136628EC326600A814EC426400A83EB824A840E2
S1136638B826FAECAC1CBDF0EAF08A1A4C1061E8F2
S1136648EC56660030F8FFB828F6EC5E660030F8C1
S1136658FFB82830FF0FB82AA828BDF2A82ABDF42D
S1136668A82646F4A82461F846F261D8EC8C6600A2
S1136678ADECB800FCB06000D4F061E8EC906400C4
S1136688EC3B6400A824DAEC780600A82678080015
S1136698EC906400A81444000061E8EC0B6700FA6D
S11366A8ECAC14B836AC16B838A836BDF0A838BD6A
S11366B8F2AC0C46F2AC0A61F846F061D8EC0B6710
S11366C8008DF4980B8DF5980A8DF698098DF79836
S11366D808FC006800880B9DF4880A9DF588099DCC
S11366E8F688089DF7D4F061F8EC3B6400ADF4BF7C
S11366F89EAFADF6BFA0AF8F8EB76C019F8EB7EC7F
S1136708226700ADF4B800ADF6B802E19804FC8144
S11367186800D4F061F8EC3B6400A8140492B7B89C
S113672816A84EB834A81A16A81607BDF0A816B8A5
S11367380C46F061F8EC5D6700A80CBDF2A834BD06
S1136748F4DAF2FAF48B480000ADF4A1B834ADF2EF
S1136758A1EC376700A81616A80C27BDF0A84E06AA
S1136768F0EC726500AC14B83AAC16B83CA83ABD63
S1136778F2A83CBDF4ADEA46F4ADE861F846F2612E
S1136788E3EC9D6700DAECADE8781400ADEA78161E
S113679800ECB46700AF88B744000061F8ECBC674C
S11367A800A85044000061F8ECBC6700EAEC8A04D5
S11367B86C809A04EAEC8A045C089DF0D4F061E8E1
S11367C8ECD26700A850EC426400ADECB800FC11B0
S11367D86300D4F061F8EC3B6400ECCC670020065D
S11367E8A80AB800AEF8040A00040200B802E6B821
S11367F804FCD563001006D761EFC1C361CF20083C
S1136808D58EB761F8EC766800AF90B7B800AF9E44
S1136818AFB802AFA0AFB8043092B7B806FCBD5FFA
S113682800D4F061F8EC786800AF8AB7BDE8AF8CA3
S1136838B7BDEAADEA440000ADE861F84400006180
S1136848F8EC736800AF90B7B800ADE8B802ADEAE9
S1136858B8043092B7B806FCBD5F00D4F061F8EC18
S1136868786800F6BF8AB7F6BF8CB7F58EB7E4F040
S1136878100861EFC2C061CFD761EFC1C361CF20F7
S113688808A810BDE8A812BDEAAFA0AF46EAAF9EBB
S1136898AF61F846E861F8ECDD6800FC006800D4F4
S11368A8F061E8ECB56800F4F0ECEA6800AF90B782
S11368B8B800ADE8B802ADEAB8043092B7B806FC3F
S11368C8EC5E00D4F061F8ECAF6800ADE8BF9EAFB1
S11368D8ADEABFA0AF8814768F8EB7616E9F8EB76E
S11368E8E4F0100861EFC2C061CFD761EFC1C3C53E
S11368F861CF201AA826B80EA828B810A82ABDEC7B
S1136908A824BDF2FAF2AC0A040100B806AC0C6182
S1136918D8A1040000B808A806BDF0A808BDF2A8CC
S11369281046F2A80E61F846F061E3EC3D6900F404
S1136938F0EC4E6A00A824BDF2FAF2AC16B812A81C
S113694824BDF2FAF2AC18B814A824BDF2EAF28A0B
S11369581A4C1061E8EC726900880F708810BDF059
S1136968A810318EBDF2EC876900A80E311D9DF088
S1136978880F708810311D9DF1A810317EBDF2FB7F
S1136988F8FFADF0610912B806ADF261D8A161094A
S113699814B808AF9EAFB816AFA0AFB818A816BD04
S11369A8F0A818BDF2A80846F2A80661F846F061F6
S11369B8E8ECED6900A824BDF2EAF28A1A4C1061E9
S11369C8E8EC186A00880E9DE8F4E98DE99DEBADC2
S11369D8E8010492B716ABDAEC7800008DEB4802B4
S11369E800EC496A00A806B800A808B802F198049F
S11369F88DF4980D8DF5980C8DF6980B8DF7980AF3
S1136A08FC816800D4F061E8ECBD6900EC376900EA
S1136A18880E5C7F9DF4F4F5ADF4312D0492B7BD76
S1136A28F4BDF0DAECEAF0895CFF480000EAF48A85
S1136A38015CFF4801008A025CFF4802008A035C8B
S1136A480F480300E4F0101A61EFC4C2C061CFD745
S1136A5861EFC1C3C561CF201EA828BDECA82AB820
S1136A680AA82CB80CA82EB812A830B814A80C443C
S1136A780000A80A61F844010061E3ECB56B00FA70
S1136A88ECAC0A040100BDF0AC0C61D8A104000010
S1136A98BDF2A80C46F2A80A61F846F061F3ECB519
S1136AA86B00FAECAC16B816AC18B818EAEC8A1AEB
S1136AB84C1061E8ECD16A00880B70880CBDF0A812
S1136AC80C318EBDF2ECE66A00A80A311D9DF088EF
S1136AD80B70880C311D9DF1A80C317EBDF2FBF8BA
S1136AE8FFADF0610916B80EADF261D8A1610918BD
S1136AF8B810AF9EAFB81AAFA0AFB81CA81ABDF0B3
S1136B08A81CBDF2A81046F2A80E61F846F061E888
S1136B18EC416B00EAEC8A1A4C1061E8EC6C6B00EF
S1136B28880A9DE8F4E9ADE8010492B7BDE8A81223
S1136B38DAE8780000EC866B00A80EB800A810B854
S1136B4802F198048DF498098DF598088DF6980744
S1136B588DF79806FC816800D4F061E8EC1C6B00A2
S1136B68ECB76B00880A5C7F9DF4F4F5ADF4312D25
S1136B78BDF4A812DAF47892B7A8147894B78F8E73
S1136B88B76C019F8EB7EAEC8A144C0161E3ECAF51
S1136B986B00FAECA80E610906BF8AB7A81061D881
S1136BA8A1610908BF8CB7E4F0ECB76B00F4F010EE
S1136BB81E61EFC4C2C061CFD761EFC1C3C561CF45
S1136BC8202EA838BDECA83AB81AA83CB81CA83E90
S1136BD8BDE8FAE8ABBDF0AC02BDF2ADF24400008A
S1136BE8ADF061F844000061F8EC0A6C00ADF00403
S1136BF80100B816ADF261D8A1040000B818EC275A
S1136C086C00FAECABB816AC02B818E4EAA81C4459
S1136C180000A81A61F844010061F8EC296C00F43A
S1136C28EAFAECAC0A040100B826AC0C61D8A10459
S1136C380000B828A816B812A818B814C9F4000097
S1136C48ADF4BDF6FAECAC0AB822AC0CB824A82210
S1136C58BDF0A824BDF2ADF646F2ADF461F846F0F5
S1136C6861C8EC846D00A826BDF0A828BDF2A8145C
S1136C7846F2A81261F846F061E3EC966C00300223
S1136C8800B812F6B814A812B816A814B818ADECBF
S1136C98B800A812B802A814B804AEF8042E000468
S1136CA8FCFFB8068DF498118DF598108DF6980FA1
S1136CB88DF7980EFCF3680088119DF488109DF5F3
S1136CC8880F9DF6880E9DF7D4F061F8EC846D006A
S1136CD8A82C440000A82A61F844000061F8ECFFDD
S1136CE86C00A812040100B816A81461D8A1040005
S1136CF800B818EC3C6D00A812040100BDF0A814FB
S1136D0861D8A1040000BDF2FBF8FFADF0612916BB
S1136D18B80AADF261D8B1612918B80CA81ABDF047
S1136D28A81CBDF2A80C46F2A80A61F846F061F85E
S1136D38EC626D00ADF4040100BDF4ADF661D8A1B8
S1136D48040000BDF6A812040100B812A81461D802
S1136D58A1040000B814EC4C6C00ADECB800A81207
S1136D68B802A814B80430FFFFB80630FF0FB808FB
S1136D78FC586A00D4F061E8ECC36D00F4F0EC460A
S1136D886E00A81204FFFFB81AA81461D8A104FF62
S1136D98FFB81CADECB800A81AB802A81CB804A81F
S1136DA812B806A814B808FC586A00D4F061F8ECC4
S1136DB8846D00A81AB812A81CB814A816BDF0A8A7
S1136DC818BDF2A81446F2A81261F846F061F3EC73
S1136DD88A6D00FAE8ABB81EAC02B820A8204400BB
S1136DE800A81E61F844000061E8EC206E00A816B3
S1136DF8DAE8780000A818780200D4EA61F8EC44CC
S1136E086E00EAECA816040100B9A81861D8A10418
S1136E180000BA02EC446E00ADECB800A81EB8023B
S1136E28A820B804A816B806A818B808FC586A0018
S1136E38D4F061E8ECF66D00EC846D00E4F0102EFB
S1136E4861EFC4C2C061CFD720048F9BB99DF28F74
S1136E589AB9705100BDF08F9BB9D4F261E8EC99EE
S1136E686E00318F46F071FF7177F161C8EC0B6FDA
S1136E78008F9BB9318F312D049CB91489316A9DD7
S1136E88F25AF2014AF20161E8EC0B6F00EC686F08
S1136E9800D171FF61E3EC0B6F008F9BB9318F4612
S1136EA8F071FF7177F161C8ECD06E008F9BB93136
S1136EB88F312D049CB91489316A9DF25AF2014A22
S1136EC8F20161F8EC7E6F008F9BB9318FBDF28FB0
S1136ED89AB9705100BDF0ADF246F071FF7177F1C7
S1136EE861F3EC0B6F008F9BB9318FB1312D049C8A
S1136EF8B91489316A9DF05AF0014AF00161F8EC3D
S1136F089A6F00A09BB98F9BB99DF08F9AB9705165
S1136F1800BDF28DF0318FBDF0ADF246F071FF7116
S1136F2877F161D8ECB66F008F9BB94C0B71FF6198
S1136F38F3ECB66F008F9BB9318F312D049CB9BD2A
S1136F48F0FAF0AC02BF68FF8F9BB9318F312D0482
S1136F589CB9BDF0FAF0AF98B9610902ECDA6F0098
S1136F688F9BB9318F312D049CB914895C3F9800EB
S1136F788DF2ECAC6F008F9BB9318F312D049CB925
S1136F8814895C3F98008DF29802FC575400ECD0A9
S1136F986E008F9BB9318FB1312D049CB914895C73
S1136FA83F9800F19802FC575400EC0B6F00AF981F
S1136FB8B9BDF2AFA2AFBDF0ADF204040046F06172
S1136FC8C8ECE06F00ADF026F2BF68FF51FF9F9B4D
S1136FD8B9F6BF98B91004D7300400ECD16F00FC9F
S1136FE8506E00D78FFBB9705100BDF28FFCB97099
S1136FF85100BDF0ADF226F0BDF0D78FFCB99DF27B
S11370084FFBB961C8EC28700070510004FDB91633
S11370188B705100BDF08DF2819FFCB9EC2C70008F
S1137028C9F0FFFFD78FFCB99DF04FFBB961C8ECDD
S11370384E7000CDF100ADF004FDB9168B7051000F
S1137048BDF0EC527000C9F0FFFFD7D761EFC1C3A0
S1137058C561CF2006A810BDEAA814BDE8A812D5BA
S1137068D8B961F8ECA97000B80406E8BDECA80426
S113707846EC61F8ECB37000FAEAABBDF0ADEAB8DF
S113708800A804BDF2FAF28B9802ADF0BDF2FAF250
S1137098ABBDF2FAF261FAFBF8FF617904EC7670A1
S11370A800B8008DE89802FC997300ADE8BDF010B3
S11370B80661EFC4C2C061CFD72004D5D8B961F83E
S11370C8EC0771008FD9B94C1F61E3ECE97000A893
S11370D808BDF0DAF0E6780200C9F00000EC1C7193
S11370E8008FDAB99DF2705100BDF0DAF0880A48D1
S11370F8DBB98DF2819FDAB99FD9B9EC187100AE6A
S1137108F8040800040200B800E19802FC9973002E
S1137118C9F001001004D7A804BDF0DAF0F678022B
S113712800DAF030E803780400F678060030FE311F
S1137138780000D7200230CCB9B800FC1F710010C9
S113714802D7D7CFA0FF107170A1FF7148A4FF71B7
S113715868A1FFC9F0903AC9F21C0000ADF004FF21
S1137168FFBDF0ADF261D8A104FFFFBDF2ADF2445A
S11371780000ADF061F844000061E8EC637100F5CB
S1137188F3007108A1FF7168A4FF8FA4FF5C809DC0
S1137198F0D4F061E8EC927100D761EFC1C3C56126
S11371A8CFC9F0F000ADF0BDF2EAF2896C8099C95C
S11371B8F490FFADF4BDF6DAF6F6780000C9F6E708
S11371C8FFADF6BDE8EAE8896C04997120EFFF7118
S11371D820EBFF302000780000ADF0BDE8EAE88934
S11371E86C0199305000BFB601C9F2B401ADF2BDCB
S11371F8F0FAF0ABBDE88DE86C209DF08DE99DF1C7
S1137208ADF2BDE8DAE8ADF0780000C9F0D4FFAD1E
S1137218F0BDF2EAF2896C0199C9F2D0FFADF2BD72
S1137228E8EAE8895CFE997108D8FF7108DCFF3048
S11372380080BF9A0130FEFFBF6AFF36BE01ABBDB6
S1137248EC8DEC5CDF9DEA8DED9DEBADEABB36BCC5
S113725801ABBDEC8DEC5CDF9DEA8DED9DEBADEAF9
S1137268BB36B801ABBDEC8DEC5CDF9DEA8DED9DC2
S1137278EBADEABB36BA01ABBDEC8DEC5CDF9DEA45
S11372888DED9DEBADEABB7128E3FFADF6BDE8EAF1
S1137298E8895CFB99ADF4BDF6FAF6ABBDE88DE878
S11372A89DF68DE96C809DF7ADF4BDE8DAE8ADF69E
S11372B8780000ADF2BDF4EAF4895CFE99ADF0BD46
S11372C8F6EAF6895CFE9936B201ABBDF48DF46C2E
S11372D8209DF08DF59DF1ADF0BBF6BF20BAF6BF49
S11372E822BAF6BF28BAF6BF2ABA61EFC4C2C0618F
S11372F8CFD761EFC1C361CF2008AF28BABDE8AFCB
S11373082ABABDEAADE8040100BDE8ADEA61D8A136
S1137318040000BDEAADE8BF28BAADEABF2ABAAF97
S113732824BABDF4AF26BABDF6ADF6440000ADF4F8
S113733861F844000061F8EC687300AF24BAB8043B
S1137348AF26BAB806A80404FFFFBDF4A80661D89E
S1137358A104FFFFBDF6ADF4BF24BAADF6BF26BA4B
S1137368AF1EBABDF444000061F8EC907300AF2876
S1137378BABDF0AF2ABABDF2ADF0B800ADF2B802AA
S1137388ADF4BDF0DAF061DA100861EFC2C061CF84
S1137398D788069DF44AF42061F3ECE173008F9AD0
S11373A8BA9DF04AF00461E8ECE773008DF49F504D
S11373B8BAC9F000008DF44BF061E3ECDB7300A86C
S11373C80406F0BDF6DAF0FAF68B4852BAA6F0ECE9
S11373D8BD7300F4F0ECEA7300E4F0ECEA7300CD5A
S11373E8F002D77170300271203002713BE2713AB9
S11373F8E6710030028F51FF5C019DF0D4F061F812
S1137408ECFD7300F59ABAD771703002712030021E
S1137418713BE2713BE6F59ABAD720068F51FF5CBF
S1137428809DF08F51FFD4F061F8ECA974005C08DA
S11374389DF08F51FFD4F061F8EC7C74005C409DA2
S1137448F0D4F061E8ECF675008F51FF5C049DF010
S11374588F51FFD4F061F8EC6A7400F6B804EC3C80
S113746875005C029DF0D4F061F8ECE975005120D8
S1137478ECEB75005C049DF08F51FF5C02D4F06165
S1137488F8EC9B74009DF0D4F061E8EC457600ECD0
S11374987C75009DF0D4F061E8ECEE7500EC7C7529
S11374A8005C109DF28F51FFD4F261F8EC21750055
S11374B85C089DF08F51FF5C40D4F061F8ECF574E2
S11374C8009DF0D4F061E8ECA375008F51FF5C04D3
S11374D89DF0D4F061F8EC4D76008F51FF5C029D6D
S11374E8F0D4F061E8ECA37500ECCF75009DF0D4FE
S11374F8F061E8EC5576008F51FF5C049DF0D4F000
S113750861F8ECD176008F51FF5C029DF0D4F061F4
S1137518E8EC557600EC6876005C019DF0D4F061E7
S1137528F8ECD176008F2CBA4C0161E8ECCC7600EB
S1137538EC8E7600A80444040071FF61F3EC5375E3
S113754800FBF8FF617904EC3C75008F73BA9DF178
S11375588F72BA9DF08DF14BF061C8EC8875008F7D
S113756873BA9DF0819F73BACDF100ADF00474BA7B
S1137578ECE07500D52DBA61F8EC037600F52DBA68
S11375888F99BA9DF0D4F061E8ECEE7500E598BAED
S113759871103002F59ABAECD1760051049F9ABA68
S11375A8F551BAF550BAAF96BABDF2DAF261DA8F8C
S11375B850BA9DF0D4F061E8ECCC7500E550BA8D72
S11375C8F09F52BAF52CBA8F51BA9DF0819F51BAE7
S11375D8CDF100ADF00452BA168B9F50FFECD17672
S11375E80051309F2EBAFCEB7300ECD17600513871
S11375F89F2EBAFC107400ECD176008F73BA9DF0FC
S11376088F50FFCDF100DAF04874BA8F73BA9DF148
S11376188F72BA9DF08DF14BF061C8EC327600712F
S1137628503002A073BAECD1760071283002713060
S1137638300271503002E52DBAECD1760071203059
S1137648027138300271503002ECD1760051039F38
S11376589ABAF52FBA71503002E52CBAECD17600FB
S11376688F2FBA9DF04AF01F61F3EC4D76008F2FEF
S1137678BA9DF0819F2FBA8F50FFCDF100DAF04800
S113768830BAEC4D76008F2FBA9DF04AF01F61F3A3
S1137698ECAB76008F2FBA9DF0CDF100DAF08DF2C5
S11376A84830BA8F2FBA9DF03030BAB8008DF070D8
S11376B85100B802AF94BABDF2DAF261DAF52FBA22
S11376C8ECD176008DF29F9ABA1006D761CFC1C368
S11376D8C5C7C6C4C2C061FC61CFC1C3C5C7C6C4DF
S11376E8C2C061FC61CFC1C3C5C7C6C4C2C061FC06
S11376F861CFC1C3C5C7C6C4C2C061FC61CFC1C321
S1137708C5C7C6C4C2C061FC61CFC1C3C5C761DFF8
S1137718C1C3C5C761EFC761CFFCD5500061EFC6CF
S113772861DFC6C4C2C061CFC6C4C2C061FC61CF38
S1137738C1C3C5C7C6C4C2C061FC61CFC1C3C5C784
S113774861DFC1C3C5C761EFC761CFFCE850006101
S1137758EFC661DFC6C4C2C061CFC6C4C2C061FC83
S113776861CFC1C3C5C761DFC1C3C5C761EFC76105
S1137778CFFCC13C0061EFC661DFC6C4C2C061CFA3
S1137788C6C4C2C061FC61CFC1C3C5C761DFC1C380
S1137798C5C761EFC761CFFC483C0061EFC661DF34
S11377A8C6C4C2C061CFC6C4C2C061FC61CFC1C374
S11377B8C5C761DFC1C3C5C761EFC761CFFC083D59
S11377C80061EFC661DFC6C4C2C061CFC6C4C2C00F
S11377D861FC61CFC1C3C5C7C6C4C2C061FC61CF67
S11377E8C1C3C5C7C6C4C2C061FC61CFC1C3C5C7D4
S11377F861DFC1C3C5C761EFC761CFFC5B3C0061F2
S1137808EFC661DFC6C4C2C061CFC6C4C2C061FCD2
S113781861CFC1C3C5C761DFC1C3C5C761EFC76154
S1137828CFFC223C0061EFC661DFC6C4C2C061CF91
S1137838C6C4C2C061FC61CFC1C3C5C761DFC1C3CF
S1137848C5C761EFC761CFFCF43C0061EFC661DFD7
S1137858C6C4C2C061CFC6C4C2C061FC61CFC1C3C3
S1137868C5C761DFC1C3C5C761EFC761CFFC8E3C23
S11378780061EFC661DFC6C4C2C061CFC6C4C2C05E
S113788861FC61CFC1C3C5C761DFC1C3C5C761EFAF
S1137898C761CFFC353C0061EFC661DFC6C4C2C016
S11378A861CFC6C4C2C061FC61CFC1C3C5C761DFB3
S11378B8C1C3C5C761EFC761CFFCFE3C0061EFC619
S11378C861DFC6C4C2C061CFC6C4C2C061FC61CF97
S11378D8C1C3C5C761DFC1C3C5C761EFC761CFFCF9
S11378E822740061EFC661DFC6C4C2C061CFC6C4DA
S11378F8C2C061FC61CFC1C3C5C7C6C4C2C061FCF4
S113790861CFC1C3C5C761DFC1C3C5C761EFC76163
S1137918CFAF9CBA44000061F8EC2F7900BDF2DACD
S1137928F261DAEC337900FC8B580061EFC661DF51
S1137938C6C4C2C061CFC6C4C2C061FC61CFC1C3E2
S1137948C5C7C6C4C2C061FC61CFC1C3C5C7C6C46C
S1137958C2C061FC61CFC1C3C5C761DFC1C3C5C7AC
S113796861EFC761CFFCFB500061EFC661DFC6C49D
S1137978C2C061CFC6C4C2C061FC61CFC1C3C5C7A0
S113798861DFC1C3C5C761EFC761CFFC4859006156
S1137998EFC661DFC6C4C2C061CFC6C4C2C061FC41
S11379A861CFC1C3C5C761DFC1C3C5C761EFC761C3
S11379B8CFFCFA720061EFC661DFC6C4C2C061CFF2
S11379C8C6C4C2C061FC61CFC1C3C5C7C6C4C2C0F6
S11379D861FC61CFC1C3C5C761DFC1C3C5C761EF5E
S11379E8C761CFFCE76F0061EFC661DFC6C4C2C0E0
S11379F861CFC6C4C2C061FC61CFC1C3C5C761DF62
S1137A08C1C3C5C761EFC761CFFCFF500061EFC6B2
S1137A1861DFC6C4C2C061CFC6C4C2C061FC61CF45
S1137A28C1C3C5C761DFC1C3C5C761EFC761CFFCA7
S1137A3825510061EFC661DFC6C4C2C061CFC6C4A8
S1137A48C2C061FC61CFC1C3C5C7C6C4C2C061FCA2
S1137A5861CFC1C3C5C7C6C4C2C061FC61CFC1C3BD
S1137A68C5C7C6C4C2C061FC61CFC1C3C5C7C6C44B
S1137A78C2C061FC61CFC1C3C5C7C6C4C2C061FC72
S1137A8861CFC1C3C5C7C6C4C2C061FC61CFC1C38D
S1137A98C5C7C6C4C2C061FC61CFC1C3C5C7C6C41B
S1137AA8C2C061FC61CFC1C3C5C7C6C4C2C061FC42
S1137AB861CFC1C3C5C7C6C4C2C061FCCBF800FE50
S1137AC8410061CF3690AF34D40461DF30A604316D
S1137AD81E440000DD0EB161CF11A9BBA5A5A7A75F
S1137AE861DFEFED61CF61CF3636B430000061DF7E
S1137AF8307808311E440000DD0AB161CFBBA7A766
S1137B0861DFEFF161CFFC03590000FC6AC4003067
S1137B180000C1C1C1FC205900C1FC44590036947D
S1137B283334943332FEFFEF1436943334943332BF
S1137B380200EF0936943334943332FEFF1745DDDF
S1137B481AAB44FFFFDD0F440000DD0AC1C3C5C7FB
S1137B5861CAC6C4C2C0170316EFE2D72002303682
S1137B68B42435B444020061F3EC787B001002D7E6
S1137B78C9F00000ADF044000061F8EC757B0030FA
S1137B8836B4B800ADF01261DAEC757B002004302D
S1137B9836B42436B4311FBDF0317A9DF2CDF300EA
S1137BA8ADF206F0311FBDF044000061E8ECBC7B87
S1137BB8001004D7C9F20000ADF244000061F8ECEB
S1137BC8B97B003036B4B800ADF0B802ADF212613A
S1137BD8DAECB97B0061EFC161CFD59EBA61E8ECFC
S1137BE82A7C00AFA0BABDF030B63324B433311FB9
S1137BF8BDE8B6E8ADF046E861C8EC237C00A6F021
S1137C08ADF0BFA0BA0104B43316AB1261DAAFA069
S1137C18BABDF046E861D8EC067C00FC647B00E55C
S1137C289EBA61EFC061CFD7D72002AF90AF4400AE
S1137C380061F8EC587C00C9F00000ADF044000085
S1137C4861F8EC587C003090AFB800ADF01261DAFE
S1137C58FC957B001002D7D761EFC161CFAFB03379
S1137C68BDF044FFFF61F8EC8F7C00C9E8AE33AD8A
S1137C78F01261DAB6E8B6E8FAE8AC02BDF044FFFF
S1137C88FF61E8EC777C0061EFC061CFD7D72002B1
S1137C98A806BDF012303A32780000ADF0B800FC06
S1137CA86D83001002D761EFC161CF2002A808BD1F
S1137CB8E812303A32780000ADE8B800FC6D830071
S1137CC8ADE8B800FC318B00100261EFC061CFD77A
S1137CD861EFC1C3C561CF2010A828BDE8A81ABDAB
S1137CE8F2A6F2A6F2FAF2ABBDECA820BDF4A6F413
S1137CF8A6F4FAF4ABBDF0ADEC46F061F8EC787D8F
S1137D0800FAEC8B9DEA4AEA2A61F8EC2E7D00AD74
S1137D18ECB800ADF0B802FC30B200ADF04400009D
S1137D2861F8EC787D00A82616A8224761F8ECD102
S1137D387D00A81A04040016ABBDF016ABBDF2AD65
S1137D48F0B800A81CB802A81EB804A820B806A851
S1137D5822B808A824B80AA826B80CADE8B80EFAC0
S1137D68F2AC0E1661FA101061EFC4C2C061CFD72D
S1137D78A822DAE8780000A81E780200A81C4400AB
S1137D880071FF61D8ECBA7D00A81C16A82207BDB3
S1137D98F2C9F00100A82646F261F8EC1F7E00DA69
S1137DA8E8ADF0780600F4F0101061EFC4C2C061C9
S1137DB8CFD7A81C44FEFF61F8EC137E00F4F01042
S1137DC81061EFC4C2C061CFD7A824BDF2A6F2A641
S1137DD8F2FAF2ABBDF0ADEC46F061F8EC067E00C9
S1137DE84AEA2A61F8EC3A7D00B800ADF0B802FC22
S1137DF830B200ADF044000061E8EC3A7D00A81E02
S1137E08DAE8780400F4F0ECC77D00DAE8E67806EE
S1137E1800F4F0EC6E7D00C9F00600ECA77D00616B
S1137E28EFC1C3C561CF200AA818BDECA81ABDEAE2
S1137E38A81CBDE846EC61F8EC767E00A81404049E
S1137E480016ABBDF016ABBDF4ADF0B800A816B87B
S1137E5802ADECB804ADEAB806ADE8B808FAF4AC7B
S1137E68101661FA100A61EFC4C2C061CFD7A81412
S1137E78BDF2A6F2A6F2FAF2ABBDF0FAEAAC02BD84
S1137E88F4ADF046F461F8ECB47E0014894C2A6130
S1137E98F8EC447E00ADF0B800ADF4B802FC30B2A2
S1137EA800ADF044000061E8EC447E00C9F006002F
S1137EB8EC6C7E0061EFC1C3C561CF2008A812BD78
S1137EC8E8A814BDEAA816BDECADE8B800ADEAB858
S1137ED802ADECB804A818B806FCAF8300D4F0616E
S1137EE8E8EC0E7F00FAE8AC04BDF016ABBDF2ADC9
S1137EF8F0B800ADEAB802ADECB804A818B806FAB0
S1137F08F2AC0C1661FA100861EFC4C2C061CFD795
S1137F1861EFC161CF2002A80ABDF0A8084401009E
S1137F2861F3EC737F00ADF004ECFF16ABBDF244D3
S1137F38000061F8EC5E7F00ADF0040E00BDE8B807
S1137F4800ADF21261DAADE8B800FCD3A00010026B
S1137F5861EFC061CFD7ADF0040E00BDE8B800FCF6
S1137F68D3A000100261EFC061CFD7ADF004F0FFD9
S1137F7816ABB800FC478B0061EFC161CF2002A8A3
S1137F8808BDF004DAFF12E6780000A80ABDF2ADD5
S1137F98F004DCFF12ADF2780000A80CBDF2ADF0DD
S1137FA804DEFF12ADF2780000AFA8AFBDF2ADF069
S1137FB804E0FF12ADF2780000AFAAAFBDF2ADF055
S1137FC804E2FF12ADF2780000ADF004F2FF12F102
S1137FD8480000ADF004F3FF12512B480000ADF047
S1137FE804F4FF12512B480000ADF004F5FF1251C0
S1137FF843480000ADF004F6FF125143480000ADB9
S1138008F004F7FF125155480000ADF004F8FF12D0
S1138018514E480000ADF004F9FF125147480000E2
S1138028ADF004FAFF1230187F780000ADF004F2C6
S1138038FFBDE8B800FC9FC200ADE8B800FC648549
S113804800FCE08B0061EFC1C3C561CF2014FC4D77
S1138058A400ADF016ABBDF2EAF0AA02A1BA02ADD3
S1138068F244000061F8EC4B8200FAF28C16980294
S11380788C1798038C1898048C1998058C1A9806F0
S11380888C1B98078C1C98088C1D9809F1980A5128
S1138098D5980B51D4980C51BC980D980E51AA98A8
S11380A80F51B1981051B89811880A768802610E58
S11380B89DF6E4F48802768DF6614E61C8EC9D82E3
S11380C800880B768803610E9DF7E4F58803768DA6
S11380D8F7614E61C8EC9782008DF7768DF4610ED6
S11380E89DF4E198138DF44BF761C8EC90820088F5
S11380F8136BF59DF58DF49DF7880C768804610E55
S11381089DE8E4F48804768DE8614E61C8EC8A82BF
S1138118008DE8768DF5610E9DF5E198138DF54B8C
S1138128E861C8EC83820088136BF49DF48DF59D97
S1138138E8880D768805610E9DE9E4F58805768D55
S1138148E9614E61C8EC7D82008DE9768DF4610E9B
S11381589DF4E198138DF44BE961C8EC76820088AC
S1138168136BF59DF58DF49DE9880E768806610EEE
S11381789DEAE4F48806768DEA614E61C8EC708263
S1138188008DEA768DF5610E9DF5E198138DF54B1A
S1138198EA61C8EC69820088136BF49DF48DF59D3F
S11381A8EA880F768807610E9DEBE4F58807768DDB
S11381B8EB614E61C8EC6382008DEB768DF4610E41
S11381C89DF4E198138DF44BEB61C8EC5C82008854
S11381D8136BF59DF58DF49DEB8810768808610E78
S11381E89DECE4F48808768DEC614E61C8EC568207
S11381F8008DEC768DF5610E9DF5E198138DF54BA8
S1138208EC61C8EC4F820088136BF49DF48DF59DE6
S1138218EC8811768809610E768DF4610E9DEDD493
S1138228ED61F8ECA38200ADF012F6780000ADF22F
S1138238041600BDE8B800FCD6C300ADE8B800FCDD
S1138248648500FCE08B00F19813EC0F8200F4F4D1
S1138258ECF98100F19813ECD78100F4F5ECC181B5
S113826800F19813EC9F8100F4F4EC898100F198F3
S113827813EC678100F4F5EC518100F19813EC2FAD
S11382888100F4F4EC198100F19813ECF78000F400
S1138298F5ECE18000F4F4ECC98000D4EC61E8EC7E
S11382A82F8200D4EB61E8EC2F8200D4EA61E8EC79
S11382B82F8200D4E961E8EC2F8200D4E861E8EC6D
S11382C82F8200D4F761E8EC2F82004AF60161F3AB
S11382D8EC2F8200FAF2F661290ABC0AEC36820015
S11382E861EFC161CF2010A816BDF0A81ABDE8F649
S11382F8B808F6B80A301000B80CF6B80EADF01687
S1138308ABBDF2ADF0B800A818B802FAE8ABB804EF
S1138318AEF804100004F8FFB806FAF2AC0C1661C3
S1138328FA880A5C069DF0F4F1ADF044060061F8A1
S1138338EC4683009DF0101061EFC061CFD7A80808
S1138348DAE8780000E4F0101061EFC061CFD7A834
S11383580816A80C4761F8EC688300C9F00100D737
S1138368C9F00600D72002A806BDF012307832788A
S11383780000ADF0B800FCD8A3001002D761EFC12B
S113838861CF2002A808BDE812307832780000AD29
S1138398E8B800FCD8A300ADE8B800FC318B0010A5
S11383A80261EFC061CFD761EFC161CF2004A8108B
S11383B8BDE8A80A16AC02BDF2A80C16AC02BDF0C2
S11383C8ADF246F061F8ECFD830014894C2A61F89B
S11383D8ECF38300ADF2B800ADF0B802FC30B200A3
S11383E8ADF044000061F8ECFD8300F4F010046182
S11383F8EFC061CFD7A80EDAE8780000300400781F
S11384080600300600780200E4F0100461EFC06151
S1138418CFD761EFC1C361CF2006A80EBDEAA8106B
S1138428BDE8FAEAAC02BDF0FAE8AC02BDF2ADF080
S113843846F261F8EC77840014894C2A61F8EC61FF
S11384488400ADF0B800ADF2B802FC30B200ADF073
S113845844000061F8EC778400A81444030061E345
S1138468EC828400F4F0100661EFC2C061CFD7E457
S1138478F0100661EFC2C061CFD7FAE8ABBDF0AD2A
S1138488E8B800ADEAB802A812B804FAF0AC0A16C3
S113849861FA100661EFC2C061CFD72006A80ABDF1
S11384A8F0A81616A8124761F8EC198500FAF0AC82
S11384B802B804A81016AC02BDF0A80446F061F88E
S11384C8ECF68400A804BDF214894C2A61F8ECF196
S11384D88400ADF2B800ADF0B802FC30B200ADF0E3
S11384E844000061F8ECF68400F4F01006D7A812F2
S11384F8BDF2A818BDF012ADF2780000A80E7802FB
S113850800C9F20100DAF0ADF2780600F4F01006C2
S1138518D7FAF0AC02BDF2B804A81416AC02BDF048
S1138528ADF246F061F8EC548500EAF2894C2A6110
S1138538F8ECBB8400ADF2B800ADF0B802FC30B280
S113854800ADF044000061E8ECBB8400A80EBDF265
S1138558A81812ADF2780400ECF1840061EFC1C3ED
S1138568C561CF2014FC4DA400ADF016ABB810A81B
S11385781E04EAFFB812A81E040000168B9800A86F
S11385881EBDF6A6F6FAF68B9801A81EBDF2A6F251
S1138598A6F2FAF28B9802A81E040300168B98031D
S11385A8A81E040400168B9804A81E040500168B44
S11385B89805A81E040600168B9806A81E04070032
S11385C8168B9807F1980851D5980951D4980A51EF
S11385D8BC980B980C51AA980D51B1980E51B898A3
S11385E80F8808768800610E9DF2E4EA8800768D8B
S11385F8F2614E61D8EC038600F4EA8809768801B2
S1138608610E9DF3E4EB8801768DF3614E61D8EC3D
S11386181D8600F4EB8DF3768DEA610E9DEAE4EC99
S11386284BF361D8EC328600F4EC8DEB6BEC9DEBEC
S11386388DEA9DF3880A768802610E9DF4E4EA883F
S113864802768DF4614E61D8EC568600F4EA8DF416
S1138658768DEB610E9DEBE4EC4BF461D8EC6B8604
S113866800F4EC8DEA6BEC9DEA8DEB9DF4880B76B7
S11386788803610E9DF5E4EB8803768DF5614E6100
S1138688D8EC8F8600F4EB8DF5768DEA610E9DEAC1
S1138698E4EC4BF561D8ECA48600F4EC8DEB6BECC0
S11386A89DEB8DEA9DF5880C768804610E9DF6E4B1
S11386B8EA8804768DF6614E61D8ECC88600F4EA3F
S11386C88DF6768DEB610E9DEBE4EC4BF661D8EC00
S11386D8DD8600F4EC8DEA6BEC9DEA8DEB9DF68863
S11386E80D768805610E9DF7E4EB8805768DF761B4
S11386F84E61D8EC018700F4EB8DF7768DEA610EB4
S11387089DEAE4EC4BF761D8EC168700F4EC8DEBAA
S11387186BEC9DEB8DEA9DF7880E768806610E9DBD
S1138728E8E4EA8806768DE8614E61D8EC3A870079
S1138738F4EA8DE8768DEB610E9DEBE4EC4BE86191
S1138748D8EC4F8700F4EC8DEA6BEC9DEA8DEB9D39
